:020000040800F2
:100000002811002069020008172E00085319000863
:10001000152E0008B7040008FD310008000000009C
:100020000000000000000000000000001D3000087B
:10003000D904000800000000D92E00081F30000875
:10004000830200088302000883020008830200087C
:10005000830200088302000883020008830200086C
:10006000830200088302000883020008B904000824
:10007000830200088302000883020008830200084C
:100080008302000883020008A3040008830200081A
:10009000830200088302000883020008830200082C
:1000A000830200088302000883020008830200081C
:1000B000C13000088302000800000000830200082D
:1000C0008302000800000000000000008302000816
:1000D000000000008302000883020008C13100080C
:1000E00083020008830200080000000000000000F6
:1000F0000000000000000000000000000000000000
:1001000000000000000000000000000000000000EF
:1001100000000000000000008302000883020008C5
:1001200000000000000000000000000000000000CF
:1001300000000000000000000000000000000000BF
:100140008302000883020008000000008302000808
:10015000830200088302000883020008830200086B
:100160008302000883020008000000000000000075
:10017000000000000000000000000000000000007F
:10018000000000008302000800F002F800F05CF8B4
:100190000AA090E8000C82448344AAF10107DA45E2
:1001A00001D100F051F8AFF2090EBAE80F0013F0D8
:1001B000010F18BFFB1A43F001031847C86C000079
:1001C000E86C00000A444FF0000C10F8013B13F0FB
:1001D000070408BF10F8014B1D1108BF10F8015BA0
:1001E000641E05D010F8016B641E01F8016BF9D193
:1001F00013F0080F1EBF10F8014BAD1C0C1B09D1EA
:100200006D1E58BF01F801CBFAD505E014F8016B5B
:1002100001F8016B6D1EF9D59142D6D370470000ED
:100220000023002400250026103A28BF78C1FBD8FF
:10023000520728BF30C148BF0B6070471FB504F09C
:1002400048F91FBD10B510BD00F0F1F81146FFF7D9
:10025000F5FF03F04FF800F00FF903B4FFF7F2FFDA
:1002600003BC00F017F9000009488047094800471F
:10027000FEE7FEE7FEE7FEE7FEE7FEE7FEE7FEE756
:10028000FEE7FEE704480549054A064B70470000B3
:10029000B130000889010008280B00202811002037
:1002A000280D0020280D002053EA020C00F0698080
:1002B0002DE9F04B4FF00006002B1FBFB3FA83F57A
:1002C00003FA05F424FA05F65E4012BF1643B2FAAB
:1002D00082F502FA05F4C5F120051EBF22FA05FCDD
:1002E00044EA0C04203556EA044C4FEA144418BF83
:1002F000641C4FF000084FF00009904271EB030CB2
:1003000039D3002919BFB1FA81F701FA07F6B0FA1B
:1003100080F700FA07F6C7F120071EBF20FA07FC96
:1003200046EA0C062037B6FBF4FCA7EB0507103FA6
:1003300007F01F0BCBF120060CFA0BFB2CFA06F68C
:1003400044BFB3460026202FA4BF5E464FF0000BEB
:100350005BEA060C08BF4FF0010B19EB0B09ABFB76
:10036000027C48EB0608C01B06FB02CC0BFB03CC4F
:1003700071EB0C01C1E70B46024641464846BDE819
:10038000F08B13B54FF000004FF00001AFF3008089
:10039000BDE81C4070474FF000020429C0F01280F5
:1003A00010F0030C00F01B80CCF1040CBCF1020F28
:1003B00018BF00F8012BA8BF20F8022BA1EB0C01FD
:1003C00000F00DB85FEAC17C24BF00F8012B00F8F3
:1003D000012B48BF00F8012B70474FF0000200B519
:1003E000134694469646203922BFA0E80C50A0E858
:1003F0000C50B1F12001BFF4F7AF090728BFA0E806
:100400000C5048BF0CC05DF804EB890028BF40F8D1
:10041000042B08BF704748BF20F8022B11F0804F13
:1004200018BF00F8012B704770477047704775463A
:1004300000F02CF8AE4605006946534620F0070050
:10044000854618B020B5FFF71DFFBDE820404FF0EE
:1004500000064FF000074FF000084FF0000B21F0AE
:100460000701AC46ACE8C009ACE8C009ACE8C0097B
:10047000ACE8C0098D46704710B50446AFF3008064
:100480002046BDE81040FFF7E8BE00000048704776
:10049000C40A002001491820ABBEFEE72600020076
:1004A00070474FF0A0400168C1F34011002901D00E
:1004B000202101607047FEE706480168C1F3400152
:1004C000002905D0022141600121416001F080BB7B
:1004D0007047000000000240704790ED050AD0ED23
:1004E000010A90ED061AD0ED031A20EE200A01EE63
:1004F000210A90ED041AD0ED021A01EE610A80ED96
:10050000000AC0ED030A80ED020A704700B50146FB
:1005100080ED010AFFF7E1FF91ED000A00BD000048
:1005200070B5044600F024F90546601C02D004486A
:100530000078044400F01CF9401BA042FAD370BDBF
:10054000500100202DE9F04FDFF800920023012632
:100550000325A9F1040B85B00F2709F1040AABF1BB
:10056000040EEAE006FA03F422407CD091F804C0BD
:100570000CF0030CBCF1010F02D0BCF1020F26D12C
:10058000D0F808C0CDF800C04FEA430C05FA0CF8CB
:10059000CDF810C0DDF800C02CEA080CCDF800C082
:1005A000D1F80C80DDF810C008FA0CF8DDF800C0B6
:1005B00048EA0C08C0F80880D0F804C02CEA040C03
:1005C0000C79C4F300149C4044EA0C0444600C7998
:1005D000E443A4070DD0D0F80CC04FEA430805FA55
:1005E00008F42CEA040C8C6804FA08F444EA0C04BD
:1005F000C4600C7904F00304022C19D1DC0800EB70
:1006000084040294246A4FEA437C4FEADC6CCDF800
:1006100010C007FA0CFC24EA0C04D1F81080DDF8B5
:1006200010C008FA0CF848EA0408029CC4F82080BC
:1006300004684FEA430805FA08FC24EA0C0491F820
:1006400004C00CF0030C0CFA08FC4CEA040CC0F8D3
:1006500000C04C6814F4403F6ED03D4CD4F818C034
:100660004CF0010C00E067E0C4F818C0A46923F066
:10067000030C04F001040094364C64440294A46812
:100680004FEA837C4FEA1C7807FA08FC24EA0C0442
:10069000B0F1904F06D0DFF8C0C0604505D14FF0F3
:1006A000010C12E04FF0000C0FE0DFF8B0C0604525
:1006B00002D14FF0020C08E0DFF8A4C0604502D17F
:1006C0004FF0030C01E04FF0050C0CFA08FC4CEA6B
:1006D000040C029CC4F808C0D9F80040CC46D1F8FC
:1006E000048094435FEAC82800D51443CCF8004046
:1006F000DAF80040D446D1F8048094435FEA8828B1
:1007000000D51443CCF80040DBF80040DC46D1F8BB
:10071000048094435FEA883800D51443CCF8004045
:10072000DEF80040F446D1F8048094435FEAC8380C
:1007300000D51443CCF800405B1C0A6832FA03F47D
:100740007FF410AF05B0BDE8F08F00000804014051
:10075000001002400000014000040048000800486A
:10076000000C00480AB18161704781627047000047
:1007700001488068704700005001002090F8412037
:10078000202A24D190F84020012A20D0012280F88C
:100790004020242280F841200268136823F00103DE
:1007A00013600268136823F48053136002681368AF
:1007B0000B43136001680A6842F001020A602021BD
:1007C00080F84110002180F8401008467047022050
:1007D000704790F84120202A22D190F84020012A29
:1007E0001ED0012280F84020242280F84120026897
:1007F000136823F0010313600268136823F4706325
:1008000043EA0121116001680A6842F001020A60AE
:10081000202180F84110002180F8401008467047E0
:100820000220704770B5040004D094F84100002500
:1008300010B106E0012070BD84F84050204600F061
:10084000DFF8242084F841002068016821F00101CC
:1008500001606068216820F070600861206881682C
:1008600021F400418160E0680128A06807D040F4CD
:10087000044021688860E068022803D006E040F464
:100880000040F6E721684FF4006048602068416846
:10089000114A114341602068C16821F40041C160E0
:1008A000D4E904010843A16940EA01202168C86035
:1008B000D4E907010843216808602068016841F015
:1008C000010101606564202084F84100256384F8FB
:1008D0004250002070BD0000008000022DE9F84F5A
:1008E000044690F84100DDF828A01F4690468B464C
:1008F00020287ED194F8400001287AD0012084F885
:100900004000FFF735FF0646012200901923D1036E
:10091000204601F0CFF8E0BB212084F841001020F0
:1009200084F8420000256564C4F824806785656307
:10093000618D3148FF274FF080784FF00079FF2913
:1009400003D927853A46009039E0618D21850090D2
:100950003AE05946204601F095F813E001F00BF912
:10096000B8B9606A216800788862606A401C606279
:10097000608D401E6085208D401E80B22085618D77
:1009800001B168B1608D3246002851462046E5D15C
:1009900000E002E001F0C4F8D0B10120BDE8F88F1A
:1009A0005346002280212046009601F083F800285B
:1009B000F3D1608DFF2804D927853A460095434638
:1009C000C7E7608D2085009594F828204B46C0E746
:1009D00021682020C86121684A68084B1A404A6093
:1009E00084F8410084F8425084F840500020D5E754
:1009F000FFE70220D2E700000020008000E800FEB0
:100A000010B586B0044614216846FFF7E6FC12498B
:100A1000206888421ED1114C606940F480206061DA
:100A20006069694600F480200590C0200090122083
:100A300001900020029003200390042004900848B5
:100A4000FFF780FDE06940F40010E061E06900F428
:100A50000010059006B010BD005400400010024088
:100A60000004004870B5040011D021684CF6CC4059
:100A70000860216845F255500860D4E900014160E2
:100A80002168A0688860FFF773FE05460DE001202D
:100A900070BD00BFFFF76CFE401B272805D92068FA
:100AA000C068400701D0032070BD2068C0684007BF
:100AB000F0D120680269E1688A4201D0016102E058
:100AC0004AF6AA210160002070BD00684AF6AA21FA
:100AD00001600020704700000248816802781144DC
:100AE0008160704750010020074810B5016841F04F
:100AF00010010160032000F06DF80F2000F006F8EF
:100B000000F024F8002010BD0020024070B50D4D0B
:100B100004464FF47A712878B1FBF0F00A4909686D
:100B2000B1FBF0F000F0EAFC48B9102C07D200222B
:100B30002146501E00F02EF800206C6070BD012090
:100B400070BD0000500100205C010020094808B57C
:100B5000816941F001018161816901F00101009128
:100B6000C16941F08051C161C06900F080500090BE
:100B700008BD000000100240002809DB00F01F0241
:100B8000012191404009800000F1E020C0F80011EF
:100B900070470000F0B40E4B1B680C46C3F30223F1
:100BA000C3F10705042D00D90425191D072901D219
:100BB000002300E0DB1E012606FA05F1491E214054
:100BC00099409E40761E16403143F0BC02F034BB83
:100BD0000CED00E0064900F0070208684FF6FF033D
:100BE000184040EA0220034A1043086070470000A2
:100BF0000CED00E00000FA052DE9F84F044600680E
:100C000000265C4DC0036ED5E869C00008D4E869D1
:100C100040F08050E861E869012600F080500090C3
:100C200055480168C90512D40168804641F48071B5
:100C30000160FFF79DFD074605E000BFFFF798FD47
:100C4000C01B642835D8D8F80000C005F6D5286A3E
:100C500010F4407053D0A18801F4407181424ED00D
:100C6000286A4FF4803191FAA1F2B2FA82F2970029
:100C7000424A4FF00108174420F44070C7F800843E
:100C800091FAA1F1B1FA81F102EB81010023C1F8DF
:100C900000342862C00732D0FFF76AFD074641F2F0
:100CA000883A4FF0020907E0FFF762FDC11B51458A
:100CB00002D90320BDE8F88F99FAA9F1B1FA81F1C0
:100CC00041F040014846B8EB511F01D129680CE0C2
:100CD00090FAA0F1B1FA81F141F04001B0EB511F5F
:100CE00002D1296A01E015E0696A99FAA9F0B0FA1F
:100CF00080F000F01F0008FA00F21142D4D0286AF8
:100D0000616820F44070084328621EB1E86920F051
:100D10008050E8612078C00705D0286BA16820F0DA
:100D20000300084328632078800605D5286BE16816
:100D300020F01000084328632078000605D5E86AF3
:100D4000216920F4F8700843E8622088C00405D5C2
:100D5000286B616920F48070084328632088400470
:100D600005D5286BA16920F4805008432863002032
:100D7000A0E7000000100240007000400000424266
:100D80002DE9F0470F46050069D04A4E306800F063
:100D90000700B84209D2306820F0070038433060BD
:100DA000306800F00700B84259D12878424C8007DB
:100DB00005D56068A96820F0F000084360602878D5
:100DC000C0073DD06968012001290DD0022923D038
:100DD0005FF0020393FAA3F2B2FA82F242F0200229
:100DE000520904D0226803E04FF40033F2E7626A4C
:100DF00093FAA3F3B3FA83F303F01F03984002427C
:100E00002DD0606820F0030008436060FFF7B0FC5D
:100E1000804641F288390CE04FF00073DAE700BFFA
:100E2000FFF7A6FCA0EB0801494502D90320BDE865
:100E3000F0876068696800F00C00B0EB810FEFD1BB
:100E4000306800F00700B8420BD9306820F0070086
:100E500038433060306800F00700B84201D001200C
:100E6000E5E72878400705D56068E96820F4E06088
:100E7000084360602878000706D56068296920F477
:100E8000605040EAC100606000F01EF86168F02226
:100E900092FAA2F201F0F001B2FA82F2D140074ACE
:100EA000515CC8400649086006480068FFF72EFEFE
:100EB0000020BCE700200240001002406A6E0008DB
:100EC0005C01002054010020164A10B551681648F4
:100ED00001F00C03042B20D0082B1ED14FF470140A
:100EE00094FAA4F401F47013B4FA84F4E3400F4CC0
:100EF000D26AE45C0F2393FAA3F302F00F02B3FA71
:100F000083F3DA40094B1033C9039A5C06D50023FA
:100F10001946FFF7C9F9A0FB040110BD0448A4FB62
:100F2000000110BD0010024000127A004A6E000855
:100F300000093D002DE9F84F050071D02878FC4EDE
:100F4000C0074FF0010425D070686704C0F381002A
:100F5000012807D07068C0F3810002281BD1706897
:100F6000C00318D597FAA7F0B0FA80F040F020003F
:100F7000400901D0306800E0706A97FAA7F1B1FA31
:100F800081F101F01F0104FA01F1084265D068689F
:100F90000028D2D061E06868B0F5803F0BD010B176
:100FA000B0F5A02F17D0306820F480303060306862
:100FB00020F4802002E0306840F480303060F06A35
:100FC000A96820F00F000843F062686820B3FFF7BB
:100FD000CFFB80460AE0306840F480203060EAE7CA
:100FE000FFF7C6FBA0EB0800642871D897FAA7F0BA
:100FF000B0FA80F040F02000400901D0306800E0F5
:10100000706A97FAA7F1B1FA81F101F01F0104FAB1
:1010100001F10842E4D020E0FFF7AAFB804607E098
:10102000C2E000BFFFF7A4FBA0EB08006428DCD8F7
:1010300097FAA7F0B0FA80F040F02000400901D004
:10104000306800E0706A97FAA7F1B1FA81F101F017
:101050001F0104FA01F10842E4D12878DFF8D482B4
:1010600080074FF0000A4FF0020730D570684FF04C
:10107000F80B10F00C0F07D07068C0F38100022845
:1010800027D17068C00324D497FAA7F0B0FA80F093
:1010900040F02000400901D0306800E0706A97FA03
:1010A000A7F1B1FA81F101F01F0104FA01F1084240
:1010B00002D02869012877D130689BFAABF220F082
:1010C000F8016869B2FA82F29040014331605AE057
:1010D00064E1286988B394FAA4F0B0FA80F048F883
:1010E0002040FFF745FB814606E000BFFFF740FBCD
:1010F000A0EB090002289AD897FAA7F0B0FA80F07E
:1011000040F02000400901D0306800E0706A97FA92
:10111000A7F1B1FA81F101F01F0104FA01F10842CF
:10112000E4D030689BFAABF26969B2FA82F220F03F
:10113000F80091400843306025E0FFE794FAA4F0FE
:10114000B0FA80F048F820A0FFF712FB814605E0D6
:10115000FFF70EFBA0EB09000228CCD897FAA7F006
:10116000B0FA80F040F02000400901D0306800E083
:10117000706A97FAA7F1B1FA81F101F01F0104FA40
:1011800001F10842E4D1287800076CD5A869A8B31A
:1011900094FAA4F0B0FA80F008EB8000C0F8804424
:1011A000FFF7E6FA814607E0A4E100BFFFF7E0FAA7
:1011B000A0EB090002289ED897FAA7F0B0FA80F0B9
:1011C00040F06000B4EB501F01D130680BE097FA9B
:1011D000A7F0B0FA80F040F06000B7EB501F01D1EB
:1011E000306A00E0706A97FAA7F1B1FA81F101F074
:1011F0001F0104FA01F21042D8D034E0FFE794FA5C
:10120000A4F1B1FA81F108EB8101C1F880A4FFF7E4
:10121000AFFA814606E000BFFFF7AAFAA0EB09008B
:1012200002289AD897FAA7F0B0FA80F040F0600050
:10123000B4EB501F01D130680BE097FAA7F0B0FA79
:1012400080F040F06000B7EB501F01D1306A00E041
:10125000706A97FAA7F1B1FA81F101F01F0104FA5F
:1012600001F21042D8D12878400768D5F0694FF0D4
:101270000009C00009D4F06940F08050F061F069C5
:101280004FF0010900F0805000902B480168C9051B
:1012900012D4016841F480710160FFF769FA834656
:1012A00006E000BFFFF764FAA0EB0B00642875D8D6
:1012B00021480068C005F5D5E86801280AD008B1C2
:1012C000052811D0306A20F001003062306A20F029
:1012D000040002E0306A40F001003062E86868B360
:1012E000FFF746FA83460DE0306A40F004003062B2
:1012F000F0E700BFFFF73CFAA0EB0B0141F28830AA
:1013000081424BD897FAA7F0B0FA80F040F0400045
:10131000B4EB501F01D1306813E097FAA7F0B0FA90
:1013200080F040F04000B7EB501F09D1306A08E070
:101330000010024000004242007000400CE040E01B
:10134000706A97FAA7F1B1FA81F101F01F0104FA6E
:1013500001F21042CED02DE0FFF70AFA834607E0F3
:10136000FFF706FAA0EB0B0141F28830814215D855
:1013700097FAA7F0B0FA80F040F04000B4EB501FAD
:1013800001D130680CE097FAA7F0B0FA80F040F095
:101390004000B7EB501F02D1306A01E083E0706A71
:1013A00097FAA7F1B1FA81F101F01F0104FA01F2F5
:1013B0001042D5D1B9F1000F03D0F06920F0805070
:1013C000F061E86980B37168C1F38101022977D0C7
:1013D0004FF080714F000228504609D091FAA1F1D8
:1013E000B1FA81F148F82100FFF7C2F905465DE046
:1013F000894691FAA1F1B1FA81F1C24648F821007B
:10140000FFF7B6F9804605E0FFF7B2F9A0EB080058
:10141000022848D897FAA7F0B0FA80F040F02000F0
:10142000400902D0306801E066E0706A97FAA7F1DF
:10143000B1FA81F101F01F0104FA01F10842E3D190
:10144000D5E908100843716821F4741108437060ED
:1014500099FAA9F0B0FA80F04AF82040FFF788F92D
:10146000054604E0FFF784F9401B02281BD897FAD1
:10147000A7F0B0FA80F040F02000400901D03068B9
:1014800000E0706A97FAA7F1B1FA81F101F01F014B
:1014900004FA01F10842E5D02EE000BFFFF768F939
:1014A000401B022802D90320BDE8F88F97FAA7F065
:1014B000B0FA80F040F02000400902D0306801E02E
:1014C0000BE0706A97FAA7F1B1FA81F101F01F0100
:1014D00004FA01F10842E1D10EE00128E4D070687D
:1014E0002A6A00F48031914204D1696A00F47010D4
:1014F000884201D00120D7E70020D5E710B5401E73
:10150000B0F1807F01D3012010BD4FF0E024606175
:101510000F21601701F090FE0020A06107202061DC
:10152000002010BD7047704770470000F0B590F87C
:101530003C20012A2CD0012480F83C40022280F873
:101540003D2003685A689D68124EB34203D122F4CD
:1015500070074A683A4322F070070A683A435A60B3
:101560000268B24208D0B2F1804F05D00A4B9A42CD
:1015700002D00A4B9A4204D1896825F080031943AE
:10158000916080F83D40002180F83C100846F0BD95
:101590000220F0BD002C014000040040004001404A
:1015A00010B5040003D094F83D0010B107E001200D
:1015B00010BD002084F83C00204600F023F80220F3
:1015C00084F83D00211D206801F080FD012084F891
:1015D000480084F83E0084F83F0084F8400084F816
:1015E000410084F8420084F8430084F8440084F801
:1015F000450084F8460084F8470084F83D00002048
:1016000010BD000008B50068B0F1804F08D1054852
:10161000C16941F00101C161C06900F001000090A1
:1016200008BD00000010024090F83D10012901D0D3
:1016300001207047022180F83D100168CA6842F01D
:101640000102CA6000680D49884208D0B0F1804F9D
:1016500005D00B49884202D00A49884207D18168E7
:10166000094A1140062906D0B1F5803F03D0016830
:1016700041F001010160002070470000002C014092
:101680000004004000400140070001000168CA68F2
:1016900022F00102CA6001680A6A41F211131A427B
:1016A00007D10A6A9B101A4203D10A6822F001028C
:1016B0000A60012180F83D100020704770B5044693
:1016C00090F83C000025012817D0012684F83C60E2
:1016D000022084F83D00226890682F4B184020F4C7
:1016E0007F4090600868502838D00DDC20284FD00B
:1016F00005DC90B3102811D14AE0022070BD3028DB
:1017000046D040280AD13BE060282FD070280DD069
:10171000B0F5805F03D0B0F5005F12D0012584F8EA
:101720003D60002084F83C00284670BDCB68D1E9BC
:101730000121206801F00EFD2068816841F07701E9
:1017400009E0CB68D1E90121206801F003FD2068A0
:10175000816841F480418160E1E719E0CA68496825
:10176000206801F009FD5021206806E0CA68496838
:10177000206801F012FD6021206801F0F5FCCEE741
:10178000CA684968206801F0F7FC40212068F4E746
:10179000226801461046F0E788FFFEFF704770B5EB
:1017A0000446006801694FF00005C943890715D454
:1017B000C168C943890711D4E91E0161012020775E
:1017C000206880698007204602D0FFF7E7FF04E029
:1017D00000F0A7F8204600F0A5F8257720680169F9
:1017E000C943490717D4C168C943490713D46FF0E7
:1017F00004010161022020772068806910F4407F95
:10180000204602D0FFF7CAFF04E000F08AF8204625
:1018100000F088F8257720680169C943090716D4C4
:10182000C168C943090712D46FF00801016104209F
:1018300020772068C0698007204602D0FFF7AEFFFE
:1018400004E000F06EF8204600F06CF82577206880
:101850000169C943C90617D4C168C943C90613D46D
:101860006FF010010161082020772068C06910F432
:10187000407F204602D0FFF791FF04E000F051F8CE
:10188000204600F04FF8257720680169C943C90751
:1018900008D1C168C943C90704D1891E0161204626
:1018A00000F042F820680169C943090609D4C168FB
:1018B000C943090605D46FF0800101612046FFF796
:1018C00032FE20680169C943C90509D4C168C9430A
:1018D000090605D46FF4807101612046FFF722FEEE
:1018E00020680169C943490609D4C168C94349064A
:1018F00005D46FF040010161204600F029F820680E
:101900000169C94389060BD4C168C943890607D454
:101910006FF0200101612046BDE87040FFF704BE72
:1019200070BD70477047000010B50749006809682E
:10193000884207D10448FFF7A9FE01F02DFB0349B7
:101940000020087010BD0000780A00200000002070
:101950007047FEE701688A69D243920701D40022EA
:101960008A6200688169C943C90703D0816941F06F
:1019700001018161704700002DE9F04704460068CD
:1019800089460026816935461746C9064FF020086A
:1019900041D51021C1612FE0B9F1FF3F2CD0FEF7F6
:1019A000E7FEC11B494502D8B9F1000F24D12068D8
:1019B000416894F8422001F480418369DB431B04B1
:1019C00015D4B1F5804F12D0202A10D0416841F4CF
:1019D00080414160FEF7CCFE074608E0FEF7C8FEF6
:1019E000C01B192803D945F02005012604E0206812
:1019F0008069C0438006F1D420688069C0438006B6
:101A000002D5002EC8D003E016B92168C1F81C80A9
:101A100045F00405012621688869C20505D54FF403
:101A2000807245F00105CA610126410509D5226889
:101A30004FF4806145F00805D1610126800502D48C
:101A40000AE0800507D521684FF4007045F00205D3
:101A5000C861012600E086B12046FFF77BFF54F8FD
:101A6000240B4168064A11404160206A28432062E5
:101A700084F81D800020A07720773046BDE8F087ED
:101A800000E800FE10B5C1F3090141EA0241026815
:101A9000029C19432143506821F000414FF48063B8
:101AA00003EA5453024C234398430843506010BD4B
:101AB000FF63FF032DE9F0411E4617460D4604461D
:101AC000DDF8188020E0701C1ED0FEF751FEA0EB60
:101AD0000800B04200D8BEB92068806935EA00002D
:101AE00010D00020B8420FD154F8440F40F020002D
:101AF00044F80409202060700020A07020700120AC
:101B0000BDE8F0810120EDE72068806935EA00003A
:101B100004D00020B842D6D00020F1E70120F9E738
:101B200070B516460D4604461EE03246294620464C
:101B3000FFF722FF08B1012070BDFEF719FE801BE0
:101B4000A84200D885B920688069C04380060BD5BB
:101B500054F8440F40F0200044F80409202060703D
:101B60000020A0702070E6E720688069C0438006EE
:101B7000DBD4002070BD70B516460D46044620E04B
:101B8000324629462046FFF7F7FE08B1012070BD16
:101B9000681C16D0FEF7ECFD801BA84200D885B962
:101BA00020688069C04380070BD554F8440F40F08B
:101BB000200044F80409202060700020A0702070EC
:101BC000E4E720688069C0438007D9D4002070BD55
:101BD0002DE9F0415A4C2DED048B208800EE100ABF
:101BE00004F19000B8EE400AFEF790FCA08800EEE9
:101BF000100A04F11000B8EE400AFEF787FC608876
:101C000000EE100A04F15000B8EE400AFEF77EFC28
:101C100004F1080804F1480098ED020AD8ED0E0A14
:101C200000F14005143C20EE208A00F1B80600F1D6
:101C3000800788ED0D8A90ED020AD0ED0E0A60EE65
:101C4000200AC0ED0D0A95ED020A95ED0F1A30EE4F
:101C5000410A95ED0E1A20EE010A85ED0D0A617814
:101C600001291BD0022967D194ED020AB83001F096
:101C7000ECF895ED0D0A3846F1EE400A96ED0D0AA6
:101C800001F0E3F8D7ED0D0A98ED0D1ABDEC048BC9
:101C900080EE810ABDE8F04101F0ACBB804610EE59
:101CA000900A2849884206DA2748D0F8981341F06C
:101CB0003001C0F89813D4ED020A94ED010A2349CB
:101CC0009FED239B70EEC00A10EE900A884208DD5B
:101CD00010EE100A02F08CFB53EC192B02F0B2F854
:101CE0000CE010EE900A1C4988420AD910EE100A46
:101CF00002F07EFB53EC192B02F090FA02F070F820
:101D00006060F0EE480A94ED010A144801F09DF875
:101D10001248D5ED0D0A96ED0D0A383801F095F808
:101D2000D7ED0D0A98ED0D1ABDEC048B80EE810AFB
:101D3000BDE8F04101F038BBBDEC048BBDE8F0819B
:101D40001400002000004041007401400AD7233CE9
:101D5000FCA9F1D24D62503F0AD723BC14010020E8
:101D600030B54FF0A0444B68A46800220E4D04F03B
:101D70000104AD6805F001052C4302D00122104694
:101D800030BD0A4D53B10C681C43D1E902310B43FD
:101D900081681C4329400C438460F0E7836809682C
:101DA0002B400B438360EAE700010050E030FCFF6A
:101DB00030B58368002213F0010F02D001221046D3
:101DC00030BDD1E9003423438968C46844F2380542
:101DD000AC4321430B43C360F1E7000070B54C688E
:101DE0008368002213F0010F02D00122104670BD5B
:101DF000002C0E4B0C6807D08D682C43D1E903569C
:101E000035432C434D6904E0CD682C43D1E9045699
:101E100035432C43C5681D402C43C4604968036B9F
:101E200023F00F030B430363E0E700003CC0F0FF27
:101E300010B54FF4407494FAA4F401F44073B4FA6A
:101E400084F4E34000EB8300036B01F01F011F24C7
:101E50008C40C2F38462A3438A401343036310BDE2
:101E600070B54FF0007494FAA4F401F00073B4FA62
:101E700084F4E34000EB830043694FF0F87494FA74
:101E8000A4F501F0F871B5FA85F521FA05F50726F4
:101E9000AE4094FAA4F4B4FA84F4E140B3438A4027
:101EA0001343436170BD000030B550F8B04F064B8E
:101EB00002F0180201EA0305D3400B40AC4323F0C3
:101EC00001010C43046030BDFEFF0700044908B562
:101ED0004A6902434A6149690140009108BD000016
:101EE00000100240F0B50A680F2692FAA2F2B2FA88
:101EF00082F303248EE001259D402A407ED04D6868
:101F0000012D01D0022D20D18D68876892FAA2FCA4
:101F1000BCFA8CFC4FEA4C0C04FA0CFC27EA0C07C8
:101F200092FAA2FCBCFA8CFC4FEA4C0C05FA0CF5B8
:101F30002F438760CF680D68D0F804C02CEA050CE9
:101F40007D434CEA050CC0F804C00F69D0F80CC002
:101F500092FAA2F5B5FA85F54FEA450E04FA0EF5A8
:101F60002CEA050C92FAA2F5B5FA85F56D00AF40A2
:101F70004CEA070CC0F80CC04D68022D33D192FA20
:101F8000A2F5B5FA85F5082D15D2D1F814C0056A69
:101F900092FAA2F7B7FA87F7BF0006FA07F7BD4330
:101FA00092FAA2F7B7FA87F7BF000CFA07FC45EAE6
:101FB0000C05056217E0D1F814E0476A150A95FA96
:101FC000A5FCBCFA8CFC4FEA8C0C06FA0CFC95FACA
:101FD000A5F5B5FA85F5AD0027EA0C070EFA05FE62
:101FE00047EA0E0747624D68076892FAA2FCBCFAFE
:101FF0008CFC4FEA4C0C04FA0CFE00E009E092FA6B
:10200000A2F2B2FA82F2520027EA0E0795402F435D
:1020100007605B1C0A6832FA03F57FF46CAF00209E
:10202000F0BD0000012391FAA1F193FAA3F3B1FAF4
:1020300081F1B3FA83F3C91A084B10B5C9B2E43081
:1020400033F8113018440368044C4434615C402474
:102050008C40A3438A401343036010BDFC6D00080D
:10206000012391FAA1F193FAA3F3B1FA81F1B3FA42
:1020700083F3C91A084B10B5C9B2E43033F81130F4
:1020800018440368044C4434615C30248C40A343FE
:102090008A401343036010BDFC6D0008012391FAD0
:1020A000A1F193FAA3F3B1FA81F1B3FA83F3C91A58
:1020B000084B10B5C9B2E43033F811301844036846
:1020C000044C4434615C08248C40A3438A4013438D
:1020D000036010BDFC6D0008012391FAA1F193FA91
:1020E000A3F3B1FA81F1B3FA83F3C91A084B10B51F
:1020F000C9B2E43033F8113018440368044C443456
:10210000615C04248C40A3438A401343036010BDE8
:10211000FC6D0008012391FAA1F193FAA3F3B1FA3F
:1021200081F1B3FA83F3C91A034BC9B2C03033F853
:1021300011100A5070470000E86D0008012391FA61
:10214000A1F193FAA3F3B1FA81F1B3FA83F3C91AB7
:10215000034BC9B2BC3033F811100A50704700006D
:10216000E86D0008012391FAA1F193FAA3F3B1FA03
:1021700081F1B3FA83F3C91A084B10B5C9B2E43040
:1021800033F8113018440368044C4434615C022471
:102190008C40A3438A401343036010BDFC6D0008CC
:1021A00091FAA1F1B1FA81F11039064BC9B21C3094
:1021B00033F81110084401686FF30F0111430160F7
:1021C000704700005045000891FAA1F1B1FA81F181
:1021D0001039064BC9B2243033F811100844016895
:1021E0006FF30F0111430160704700005045000874
:1021F00000B5034600F09CFE186000F06FFE5860CA
:1022000000F07AFE9860586800F084FED86000BD47
:1022100000B501004FF000001BD112490A6B02F01B
:102220000302012A0BD0022A14D0032A0BD000F09B
:102230007FFE00F053FE5DF804EB00F05DBE5DF83C
:1022400004EB00F075BE0968C1F34001002900D01D
:10225000054800BD096AC1F340010029F9D04FF4D7
:10226000004000BD0010024000127A007FB5044615
:1022700000680D46012610F0010F37D1E968686843
:10228000AA6908432969114308432168204A11407B
:1022900008432060A868616821F4405101436160EF
:1022A0006869A16821F440710143A1601948844222
:1022B00004D10020FFF7ACFF014609E01648844234
:1022C00002D01648844211D16846FFF791FF029967
:1022D00061B1286850B1AA690026B2F5004F08D054
:1022E00001EB5001B1FBF0F080B2E06004B0304689
:1022F00070BD490001EB5001B1FBF0F081B24FF627
:10230000F07201EA0200C1F342010843EDE7000068
:10231000F369FFEF003801400044004000480040EE
:1023200070B505464FF6FF7000224AF201040DE039
:10233000AB5C58400023C6074FEA500000D0604015
:102340005B1CDBB2082BF6D3521C92B28A42EFD34D
:1023500070BD00002DE9F05FDFF81CB1DFF81CA1B3
:102360002DED028B54469BF803109BF802209BF83E
:10237000040001EB02211FFA81F89BF805109AED89
:10238000020A9FED3F8A01EB002085B220EE080A89
:1023900000F062FFBDEEC00A10EE100A94ED010AD3
:1023A0000FFA80F920EE080A00F056FFBDEEC00AD1
:1023B00010EE100A07B20AF15C0090ED0D0A20EE53
:1023C000080A00F049FFBDEEC00A10EE100A06B27E
:1023D00019FB07F001F00DFE9FED2A1B53EC112BAA
:1023E00001F01EFE01F0D6FD00B290FBF6F059465A
:1023F00000B20978ABF58074B8F1000F12D02170EB
:10240000832060700320A07001462046FFF788FFFC
:10241000E070000A207105218AF80310BDEC028BE0
:10242000BDE8F09F21709BF801106A066170150EDF
:10243000A5700021E1709AF8012022714FEA19225B
:10244000627184F806903A0AE2712772320A627267
:10245000A672020AE272207361730120A073E91C64
:102460000A48FFF75DFF6119C870000A08716D1D09
:102470008AF80350D2E7000080020020000000200C
:102480000000C84252B81E85EB51F03F8001002089
:1024900070B52448244D4FF00806C1788278A0F525
:1024A000807401EB02210904090C13D0012920D00A
:1024B000022926D000782070862060700320A0704A
:1024C00001462046FFF72CFFE070000A207105202E
:1024D000E87070BD425C6254491CC9B20629F9D348
:1024E00006211248FFF71CFFA071000AE071EE7090
:1024F00070BD0021425C6254491CC9B20629F9D35F
:10250000EEE70021425C6254491CC9B20629F9D3A6
:10251000808840BA00EE100AB8EE400A85ED020A43
:10252000DEE7000080020020000000208001002083
:1025300070B594B0002410941194182106A8129438
:10254000FDF74BFF0C940D940E94182168460F94E0
:10255000FDF743FF4FF08050FFF7B8FC4FF4002029
:10256000FFF7B4FC4FF40030FFF7B0FC0F26032553
:10257000CDE90065694669480494FFF7B3FCCDE9ED
:10258000006569464FF090400494FFF7ABFC654A44
:102590006349104612788A5844F210039A4303782C
:1025A000CA5002788A58037842F44052CA500278DE
:1025B0008A58037842F02002CA5002788A58037879
:1025C00022F04002CA5002788A58037842F0800212
:1025D000CA5002788A58037822F4407242F480721A
:1025E000CA5002788A58007822F4406242F480622D
:1025F0000A504D4800680022C0F30220114600F046
:102600000BFC0146122000F007FE122000F0F7FD3F
:102610004FF0A0461094119410A930461294FFF781
:10262000C7FB4FF4B8600690CDE907544FF48050D3
:10263000CDE90A5006A909943046FFF7CFFB0C9468
:102640000D943A4C0CA92046FFF78AFBF06820F461
:10265000406040F48060F060B06820F04050B060AE
:10266000B0683349084040F08050B060314832498A
:102670000068B0FBF1F000EB800040000A21B0FBE5
:10268000F1F000E0401E0028FCD12C4D06212A4626
:102690003046FFF7CDFB052229463046FFF7E0FB29
:1026A0007F2229463046FFF7FFFB254D0C212A46A5
:1026B0003046FFF7BDFB052229463046FFF7D0FB29
:1026C0007F2229463046FFF7EFFB1E4D12212A4696
:1026D0003046FFF7ADFB052229463046FFF7C0FB29
:1026E0007F2229463046FFF7DFFB174D18212A4687
:1026F0003046FFF79DFB052229463046FFF7B0FB29
:102700007F2229463046FFF7CFFBA06820F0E0701B
:1027100040F40000A06014B070BD00000008004844
:1027200000000240D46D00080CED00E000030050F2
:10273000C0FFFF7F5C010020400D03001000C010AF
:10274000000180218000501D000021C32DE9F04FC1
:1027500087B014216846FDF740FE3448416941F4D2
:1027600080014161416901F480010591416941F4B1
:1027700000214161416901F400210591416941F461
:1027800000314161416901F400310591416941F431
:10279000802141614069DFF8989000F480204FF477
:1027A00000460590002231464846FDF7DBFFDFF882
:1027B00084A0B711002239465046FDF7D3FF4FF4ED
:1027C00080784FF0904B002241465846FDF7CAFFF3
:1027D0003020002401258DE8310069465846FDF778
:1027E000B1FE0096CDE90154694648460394FDF7D1
:1027F000A9FE4FF4E0708DE8310069465046FDF7C0
:10280000A1FE0097CDE90154694650460394FDF7B7
:1028100099FECDF80080CDE90154694658460394ED
:10282000FDF790FE07B0BDE8F08F000000100240F9
:102830000004004800080048F0B587B01821684639
:10284000FDF7CBFDFA48816941F000518161806953
:10285000F84C00F000500690D4F8CC0340F00E0085
:10286000C4F8CC03D4F88803C0F300400028F9D0A2
:10287000F1484FF4000100250278F0481044D4F8E4
:10288000802322F4E02242F44032C4F88023016025
:10289000091191FAA1F0B0FA80F01038C2B2E648FE
:1028A000183030F812202244136823F0070343F055
:1028B0000403136091FAA1F2B2FA82F2103AD2B292
:1028C00030F812202244136823F0180343F0080361
:1028D000136091FAA1F2B2FA82F2103AD2B230F851
:1028E0001230D44A14321A4413686FF30F0343F4BE
:1028F0003453136091FAA1F2B2FA82F2103AD2B2D2
:10290000CC4B30F8122018331A44136823F0FF031D
:10291000136091FAA1F2B2FA82F2103AD2B230F810
:1029200012202244136823F0C063136091FAA1F2CD
:10293000B2FA82F2103AD2B230F81220224413686E
:1029400023F02003136091FAA1F2B2FA82F2103A56
:10295000D2B230F812202244136823F400631360CB
:1029600091FAA1F2B2FA82F2103AD2B230F8122001
:102970002244136823F48063136091FAA1F2B2FA3F
:1029800082F2103AD2B230F812202244136823F0B7
:102990000063136091FAA1F2B2FA82F2103AD2B255
:1029A00030F8123023441E6800F14C0757F82270AB
:1029B000BE43A0F10E07BA5C05FA02F216431E6090
:1029C00091FAA1F2B2FA82F2103AD2B230F8123091
:1029D00023441E68423757F82270BE43A0F1140703
:1029E000BA5C05FA02F216431E6091FAA1F2B2FA3D
:1029F00082F2113AD2B230F812308E4AD4329D505F
:102A000091FAA1F2B2FA82F2113AD2B230F812304F
:102A1000884A803213441E6826F040061E6091FAF0
:102A2000A1F3B3FA83F3113BDBB230F81360814BAF
:102A3000E43333441E6846F480761E6091FAA1F3B5
:102A4000B3FA83F3103BD4F8A06303F01F0326F41A
:102A5000002605FA03F31E43C4F8A063D4F88433B8
:102A600043F00803C4F8843391FAA1F3B3FA83F373
:102A7000103BDBB24FF6FD7630F813706D4B1C3314
:102A80003B441F686FF30F0737431F6091FAA1F3B0
:102A9000B3FA83F3103BDBB230F81370654B243389
:102AA0003B441F686FF30F0737431F6091FAA1F390
:102AB000B3FA83F3113BDBB24FF4405630F81330D6
:102AC00096FAA6F71A4496FAA6F3B3FA83F3B7FA7E
:102AD00087F7DB1B176803F01F0306FA03FC27EADE
:102AE0000C0705FA03F31F43176091FAA1F2B2FA3B
:102AF00082F2113AD2B230F812304E4AB832134450
:102B00001F6827F4E0571F6091FAA1F3B3FA83F32B
:102B1000113BDBB230F8133013441F686FF3080722
:102B200047F032071F6091FAA1F3B3FA83F3113B28
:102B3000DBB230F8133013441F6827F400771F60AE
:102B400091FAA1F3B3FA83F3113BDBB230F81330FF
:102B500013441F68DFF8E8C007EA0C0747F448177A
:102B60001F6091FAA1F1B1FA81F11139C9B230F8BF
:102B700011001044016821F0007101600022102151
:102B80002046FFF7EFFA082210212046FFF7D6FA79
:102B9000102211462046FFF7BDFA002210212046E0
:102BA000FFF79AFA002210212046FFF777FA002259
:102BB00010212046FFF754FA002210212046FFF78B
:102BC00031FA002220212046FFF7CCFA00222021F2
:102BD0002046FFF7B3FA002220212046FFF79AFA99
:102BE000002220212046FFF777FA002220212046EC
:102BF000FFF754FA002220212046FFF731FA002285
:102C000020212046FFF70EFA4FF48020FFF75EF9EF
:102C10000220CDE900600320CDE902050D20CDE9B9
:102C2000045069460748FFF75DF907B0F0BD0000A2
:102C30000010024000740140C46D0008BC770140E0
:102C4000FFFF00FE00040048124810B51049016063
:102C50001149416000210122C0E902120161416174
:102C60008161C1610162FDF7DDFD08B172B6FEE769
:102C700000210848FDF782FD08B172B6FEE7002189
:102C80000448FDF7A6FD002801D072B6FEE710BD8E
:102C900000540040140A00200E09002030B587B00F
:102CA000002424480094019402940394049405940D
:102CB0004FF08041069401601F49204A0968B1FB2A
:102CC000F2F1491EC0E9011440F24D11C0E90314AC
:102CD00080218161FEF764FC08B172B6FEE74FF413
:102CE0008055694613480095FEF7E8FC08B172B6B6
:102CF000FEE7049404A90F480694FEF717FC08B1F8
:102D000072B6FEE70B48FEF74BFC69460948009592
:102D1000FEF7D4FC049404A906480694FEF706FCCA
:102D2000002201211C20FDF735FF1C20FDF724FFA8
:102D300007B030BD780A00205C01002040420F003F
:102D400010B58EB01C216846FDF747FB182107A877
:102D5000FDF743FB2B494FF48020CA6942F48022DF
:102D6000CA61C96901F480210D91FFF7AFF84FF4F2
:102D7000407007900220089003200024CDE9090448
:102D80000720CDE90B4007A91F48FFF7ABF81F4804
:102D900000680022C0F30220114600F03DF8014611
:102DA000272000F039FA272000F029FA4FF41640C6
:102DB000CDE900040C200294CDE90340059406946B
:102DC000134C69462046FFF751FA04F1080000BF92
:102DD00050E8001F21F4806140E80012002AF7D17A
:102DE000606840F400406060606820F4904060607B
:102DF000A06820F02A00A060206840F00100206058
:102E00000EB010BD00100240000400480CED00E0C0
:102E100000480040FEE7FEE730B500F00703C3F1CD
:102E20000704042C00D90424181D072801D200230C
:102E300000E0DB1E012505FA04F0401E0840984022
:102E40009D406D1E1540284330BD30EE601A90ED58
:102E5000000AB6EE002A60EE011A90ED010A20EE9B
:102E6000020A90ED082A20EE022A90ED0A0A70EE7E
:102E7000012A90ED090A02EE220A80ED090A90ED7E
:102E8000072AB4EEC20AF1EE10FA06DC90ED062A2B
:102E9000B4EEC20AF1EE10FA01D280ED092A90EDEB
:102EA000090A30EE210A80ED0D0AD0ED051AB4EEC4
:102EB000E10AF1EE10FA06DCD0ED041AB4EEE10AF4
:102EC000F1EE10FA01D2C0ED0D1A80ED0A1AC0ED34
:102ED0000C0A90ED0D0A70477047000004494968DC
:102EE000044A01F0F0010909515CC8407047000034
:102EF000001002406A6E000804494968044A01F45F
:102F0000E06102EB11210978C840704700100240CF
:102F10007A6E000804494968044A01F4605102EBE2
:102F2000D1210978C8407047001002407A6E00082D
:102F30000648406810F00C01054805D0042903D06C
:102F4000082901D100F006B87047000000100240C7
:102F500000127A000E49486810F480320D4803D000
:102F6000B2F5803F00D14000CA6A496802F00F0202
:102F7000521CB0FBF2F04FF4701292FAA2F201F47C
:102F80007011B2FA82F2D140891C484370470000A8
:102F90000010024000093D0010B51C4C1C4821786F
:102FA000FFF7BEF900282FD11948017801292BD14C
:102FB0004078032802D0062805D102E0FFF7CAF9BD
:102FC00001E0FFF765FA134850E8001F21F02001E7
:102FD00040E80013002BF7D1E27800210E4C07E007
:102FE000C369C3F3C013002BFAD0635C0385491C8B
:102FF0009142F5DB4021016250E8001F41F02001C1
:1030000040E80012002AF7D110BD000000000020A7
:103010008002002000480040800100207047FDF73A
:103020005BBD30B597B028216846FDF7D6F914216D
:1030300011A8FDF7D2F91C210AA8FDF7CEF90B2043
:10304000009001211022CDE904124FF480300024B9
:103050000691CDE901040225CDE907504FF4E010B7
:1030600009906846FDF766FF08B172B6FEE70F20CB
:10307000CDE911054FF48060CDE91340022111A87C
:103080001594FDF77DFE08B172B6FEE744F2A0008C
:103090000A904FF48070CDE90D40000110900AA80D
:1030A000FDF7AAFD002801D072B6FEE717B030BDCB
:1030B0000248016841F470010160704788ED00E04A
:1030C0000148FEF76CBB0000780A0020F0B50268EA
:1030D0001B4B1C4F4FF0804C984203D0604501D0F1
:1030E000B84203D122F070044A682243164C174DAF
:1030F000174E984209D0604507D0B84205D0A0428B
:1031000003D0A84201D0B04203D122F44077CA686C
:103110003A434F6922F080023A4302608A68C262F1
:103120000A688262984205D0A04203D0A84201D02A
:10313000B04201D10969016301214161F0BD000084
:10314000002C0140000400400040014000440140C8
:103150000048014010B5846842EA032224F47F4409
:103160000A432243826010BD826822F070020A4343
:1031700042F007018160704710B5036A046A24F0C9
:1031800001040462846924F0F00444EA021423F088
:103190000A020A438461026210BD10B5036A23F07B
:1031A000100303628369046A23F4704343EA023222
:1031B00024F0A00343EA01118261016210BD000006
:1031C0000A48C169C1F3401100290DD0828C094918
:1031D000074B08781A54401C0870074900200968FA
:1031E00048620548FEF720BA7047000000480040DA
:1031F0008002002000000020780A0020FEE700285E
:1032000009DB00F01F02012191404009800000F11C
:10321000E020C0F8001170470907090E002804DB00
:1032200000F1E02080F80014704700F00F0000F17A
:10323000E02080F8141D70470907090E002804DB00
:1032400000F1E02080F80014704700F00F0000F15A
:10325000E02080F8141D704710B52DED028BB0EE04
:10326000408A18EE100A01F03FF901EE100A18EE3C
:10327000100AB7EE000A78EE410A10F0004F4FF046
:103280007F4010EE901A12D0B1F13F4F24BF10EEE4
:10329000901AB0EB410F12D210EE901AB1F17C5F90
:1032A0001CDD10EE901AB0EB410F17D314E0B1F112
:1032B0003F4F07D910EE901AB0EB410F02D331EE19
:1032C000401A0BE010EE901AB1F17C5F06DB10EEB5
:1032D000901AB0EB410F01D331EE001A18EE100A2C
:1032E000BDEC028B11EE101A61F31E0000EE100A05
:1032F00010BD704708B5FDF7F7FBFFF792FEFFF72B
:1033000025FA2448416941F001014161406900F01A
:1033100001000090204800680022C0F30220022132
:10332000FFF77AFD01460B20FFF776FF0B20FFF732
:1033300066FFFFF7FDF8FFF77FFAFFF785FCFFF761
:10334000ADFC1748154901600621416040F6FF7148
:10335000C16040F2E2418160FDF784FB08B172B6C2
:10336000FEE7FFF7EDFC00F06BF80E480821016264
:10337000022101620421016250E8001F41F0200196
:1033800040E80012002AF7D10548FDF79EFBFFF741
:10339000B0FFF9E7001002400CED00E00030004003
:1033A000680A002000480040DFED100A70B520EEEA
:1033B000200A2DED028B4FF400240D4DBCEEC08A87
:1033C000214618EE100A82B228460932FEF7E8FEBE
:1033D00018EE102A42F6F741BDEC028B90B20A1AA1
:1033E00021462846BDE87040FEF7EEBE0000B44519
:1033F00000740140DFED100A70B520EE200A2DEDBB
:10340000028B4FF400240D4DBCEEC08A214618EE0D
:10341000100A82B228460932FEF7D6FE18EE102AAC
:1034200042F6F741BDEC028B90B20A1A21462846BB
:10343000BDE87040FEF7B4BE0000B4450074014022
:1034400070B5424B424A4349434800F00DF94248A7
:1034500000F09DFA0021404800F0A9FA3F493E489B
:1034600000F0BBF83C4800F08DF83B4800F0ACF8A9
:103470003C489FED3B0A80ED0F0A3B48D0F894137F
:1034800041F03001C0F89413016841F4002101605B
:103490004FF0A0408168354A114041F00041816001
:1034A0008168C90FFCD1826831490A40521C826090
:1034B00082680A40121D82602F4A2E4910461378F6
:1034C0000A1D9B5804786FF30F0343F00403A350C5
:1034D000284C03780834294A1A51224A254B883A45
:1034E00004780C33E25002788A58037842F00202E2
:1034F000CA5002788A58007842F001020A504FF40C
:10350000FA663046FDF70CF8164D3046803DA5F1C1
:103510001C0495ED0D0A84ED010AFDF701F804F194
:103520005C00D5ED0D0A90ED0D0AB4EEE00AF1EE67
:1035300010FA04DB012060709FED110A03E0022005
:103540006070B2EE040A84ED020A70BD993D000875
:10355000453A0008A46C0008800300205C45000880
:10356000004000459C00002000740140C0FFFF3F68
:10357000C0FFFF7F000002404845000840000050A7
:1035800000001042016890F83820097C12FB01F11C
:10359000C900406BFCF7FFBE70B50D461E460446E1
:1035A000B0F84E10B0F84C00049B00F0F4F800287E
:1035B00009D0B4F84A10B4F8480033462A46BDE8AA
:1035C000704000F0E8B870BD10B5044600F073F923
:1035D0002046BDE8104000F0E2B910B50446806D09
:1035E000884209D004F17400A16500F02FF920464B
:1035F000BDE8104000F054B810BD00000149C1659D
:10360000704700007F3700080021A0F85010A0F894
:1036100054104FF6FF71A0F85210A0F85610016B2D
:103620004968084770B5044600250498A565E3621B
:10363000616384F8382084F8395084F86D5084F838
:103640009150012184F8921084F89310206301684E
:10365000204688472046FFF7D7FF2046FFF7CEFFDA
:1036600084F8705070BD00007CB50C460093134682
:103670000546084A084900F0A2F901A800F0E0F860
:103680000146064B00949DF804202846FFF7CAFF28
:103690007CBD0000693B0008913C0008B137000880
:1036A00010B5816D00291AD090F9813080F88E30E4
:1036B00090F9822080F88F2090F88D1000290ED08C
:1036C00001290DD090F97E4090F980100C449C4265
:1036D00001DD80F88E408A4201DD80F88F1010BD38
:1036E00090F983108B4201DA80F88E1090F98410E3
:1036F000F1E738B50446B0F856000090B4F85230FF
:10370000B4F85420B4F850102046FFF745FF18B322
:10371000012084F88C00B4F84810B4F850008142BD
:1037200001D2A4F84800B4F84A10B4F8520081421B
:1037300001D9A4F84A00B4F84C10B4F854008142FE
:1037400001D2A4F84C00B4F84E10B4F856008142EF
:1037500001D9A4F84E0038BD002084F88C0038BD93
:1037600038B5C58F049C0094521BC46A92B2A0471E
:1037700038BD38B5049C0094FFF7F2FF38BD002037
:10378000704708444FF6FF720178407802EA012141
:10379000084480B270478A4205D2834201D89A42D7
:1037A00003D9012070478342F9D8002070470000F8
:1037B000F0B502F007060124B440002590F892E02D
:1037C000E7B2DDF814C02C46BEF1010F01D83D462A
:1037D00000D03C46076822F00702BCF1000F3F7C96
:1037E00007FB02F7BAB2476B3A44114409D1087893
:1037F0005B1E284360401B0401F8010B1B0CF6D133
:10380000F0BD0A78761C2A436240A3F101030A70D6
:1038100016F007069BB206D06A06150E6206140E55
:10382000002BEED1F0BD428F114490F89220012A76
:1038300003D800BF4FF00105F2D04FF00104EFE7CD
:1038400008210170004870471406002070B5054635
:1038500008782870487868708878A870C878E87008
:10386000087928714879687188790C46A871E079DF
:10387000E871207A2872607A6872A07AA872E07A79
:10388000E872207B2873607B6873A07BA873E07B61
:10389000E873207C287411212046FFF772FF6882AC
:1038A00013212046FFF76DFFA88215212046FFF760
:1038B00068FFE88270BD2DE9F843064690F838703D
:1038C00090F83950006800244FF6FF7890F8119076
:1038D000316830462A460B7C716B04FB03FC1FFAEF
:1038E0008CFC08EACC0C61440091002100F040F807
:1038F000641C6D1CE4B2EDB2BC4201D24D45E7D36D
:10390000BDE8F883F0B590F838204FF6FF750368EE
:1039100005EAC2018187197C05EAC101418790F857
:10392000394005EAC401C1875E7CA718B74201D9B6
:10393000321B92B205EAC20220F8401F11444180B6
:10394000998A8180D98AC180F0BDFFF7DBBF002151
:10395000A0F84810B0F84410A0F84A10B0F8401091
:10396000A0F84C10B0F84210A0F84E10FFF7C1BEFE
:103970001CB58DF805108DF80620049C8DF80430D8
:103980000094012284686B460F21A0471CBD30B40F
:1039900084680023A44630BC1A460A21604730B42C
:1039A00084680023A44630BC1A461021604730B416
:1039B00084680023A4460A4630BC0B2160472DE9E9
:1039C000F04115460E460446069F00F009F867616F
:1039D000A660C4E903532046BDE8F04100F012B8E8
:1039E000002140F8081B064A026042608260C26003
:1039F000C17681770161FF21017780F8201070473F
:103A0000953D000830B484680023A44630BC1A46B3
:103A10000921604730B404690023A44630BC1A462B
:103A20001921604713B50122046901AB1721A04792
:103A30001CBD30B404690023A44630BC1A461821CA
:103A40006047000038B5174C18291BD004DC142936
:103A500025D0172904D105E0192916D020291ED018
:103A6000002038BD1049E36008E000BFA07813F8DB
:103A7000015B0D54401C521EA070D2B2002AF5D139
:103A8000E3600CE00020A07009E090F824106420AE
:103A900021610090A378044A0448FCF71FFF01202D
:103AA00038BD00000000002060010020140A002042
:103AB00030B4C4680023A44630BC1A4619216047BC
:103AC00030B4C4680023A4460A4630BC16216047BF
:103AD00030B4C4680023A4460A4630BC15216047B0
:103AE00030B4C4681346A4460A4630BC1721604768
:103AF000F8B50C464FEA000514F8011B182924D02C
:103B00000EDC152919D0162917D0172923D12078B2
:103B10008DF800006A4601212846FFF7E1FF0AE020
:103B2000192912D0FE2916D122788DF800202921DA
:103B3000284600F039F9641CDEE722788DF8002071
:103B4000EE6800232846B047F5E70023EE681A46E2
:103B50002846B047D0E7F8BD30B4C4680023A44677
:103B600030BC1A46182160472DE9F041DFF8B080DB
:103B700014460646A1F11402002798F800001D46DD
:103B8000062A4AD2DFE802F02F03161B3E4310B18B
:103B90003046FFF73FFF3046FFF74BFF002130462E
:103BA000FFF740FF21463046FFF73CFF012088F831
:103BB000000029E021463046FFF734FF24E050B1F1
:103BC0003046FFF727FF06E01821304600F0F2F8F4
:103BD000183CE4B21835182C2A46F5D82146304650
:103BE00000F0E8F80EE096F82400FF2802D17820D3
:103BF00086F8240037692B4622463046BC46BDE88D
:103C0000F041604788F800700120BDE8F08100288D
:103C1000F8D03046FFF7FEFEF4E70020F5E700009D
:103C20004C01002070B50023456904461A4628213E
:103C3000A8470023E5681A4614212046A847012218
:103C40004B21204600F0B0F8206829210279204657
:103C500000F0AAF800224B21204600F0A5F82068C9
:103C600029210279204600F09FF801224B212046AD
:103C700000F09AF82068292142792046BDE870407A
:103C800000F092B80160897C80F822107047000033
:103C900070B50C46054600F019F890B9092C0BD008
:103CA0000A2C01D0002070BD2846FFF7BBFF064953
:103CB0002846FFF71DFF04E003492846CC31FFF7F3
:103CC000E1FF012070BD0000C86C00082DE9F04143
:103CD0001E46144605460B2908D00D290ED00E2984
:103CE0001ED00F2927D00020BDE8F0811AB1284945
:103CF000FFF7FEFE4AE02649491FF9E74AB1244989
:103D00000C31FFF7F5FE286890F8130085F82200C3
:103D10003CE01F49491DFFF7EBFE2868807CF5E772
:103D2000FFF71AFF81212846FFF7D2FE21462846D9
:103D3000FFF7C6FE27E0FFF70FFF707995F8221016
:103D400001EBC000C7B240212846FFF7C1FE10209A
:103D500040EA17112846FFF7BBFE07F00F0128467F
:103D6000FFF7AEFEB07940F0B0012846FFF7A8FE9D
:103D700030793268C006010E2846FFF7B1FE641E96
:103D800014F0FF04F4D12846FFF792FE0120ABE7C0
:103D9000B56C00080020704710B51046292901D1E4
:103DA000FCF7BEFB012010BD30B444690023A446DB
:103DB00030BC60472DE9F04115460E460446FFF73A
:103DC00038FE40212046FFF72DFE27692B4632465C
:103DD00017212046B8472046BDE8F041FFF71ABE3C
:103DE00021F00042A2F16052B2F5801F01F00043C1
:103DF00028BFD2F17F6C0BD95FEA001C43EAC202F4
:103E000042EB507018BF704728BF20F00100704788
:103E1000B2F5801FBCBF184670474FEA410C1CF535
:103E2000001F02D2084600F059BB70B500F0A2F99D
:103E300000000089FFF7F6BF4FF00040A0F58000BA
:103E40007047000010B591EA030F48BF83F00043AC
:103E500000F1EC81841A71EB030C05D2121943EBCB
:103E60000C03001B61EB0C01DFF824E14FEA115455
:103E7000A4EB135C1EEA430F18BF9EEA445F73D0A5
:103E800023EA0E03DCF1200E21EA045143F48013EF
:103E900032D322FA0CFE10EB0E0023FA0CFE41EB9B
:103EA0000E01CCF1200E03FA0EFE10EB0E0051F1C4
:103EB0000001B1F5801FCCF1200E32D201EB04518C
:103EC00012FA0EF2BDE8104058BF7047401C38BFD0
:103ED0005FEA420218BF7047002814BF20F00100BB
:103EE00041F100014FEA410313F5001F38BF70474D
:103EF000A1F1C04100F08CB9012A43EB0302ACF1FF
:103F0000200CDCF11F0E32BF4FF0000E23FA0CF331
:103F100010EB030041EB0451B4EB115FD0D0A1EBE7
:103F2000045101F5801149085FEA300001EB0451AA
:103F30000ED350F1000038BF12FA0EFE08D1BDE8D2
:103F40001040C9E7401C38BF5FEA4202CAD1C3E74C
:103F5000BDE810404FEA410313F5001F38BF70471A
:103F6000A1F1C04100F054B99EEA445F08D011EAC3
:103F70005E0FBDE8104004BF01F000410020704713
:103F8000BDE8104070B500F0F5F800BF64FBBE3E20
:103F90000000E0FF4FEA41034FEA5353A3F580636B
:103FA000D3F11E03C8BFD3F1210C0CDD4FF000424A
:103FB00042EAC12242EA505232FA03FC8CEAE17C26
:103FC000ACEBE1707047102BC4BF0020704703F5C5
:103FD000787CBCF1FF3F04D06FF0004282EA210000
:103FE000704770B500F0C6F84992248000207047F1
:103FF000F2E710F0004248BF4042B0FA80F310FAF6
:1040000003F10AD0C3F11D0303F580634FEA415069
:1040100002EB035202EBD12170474FF000007047D2
:10402000DFF848C170B51CEA111E1EBF1CEA13154B
:104030009EEA0C0F95EA0C0F00F06F8081EA0304F2
:1040400023EA4C134EEAD47E21EA4C1141F480114C
:1040500043F48013AE44A1FB024CA0FB0365AEF118
:104060007F7E361955EB0C05A1FB034C4CF1000388
:10407000A0FB021C16EB0C06654153F1000309423C
:1040800018BF46F0010613F4007F0BD14FEA03314D
:104090004FEA0530340341EA155140EA16506FF0FB
:1040A00003020AE04FEAC3214FEAC520F40241EAC5
:1040B000555140EA56506FF0020202EB2E4201EBDE
:1040C000025585EACE710AD05FEA440C18BF24F08D
:1040D000004450F1000041F1000120EAD47040F2A8
:1040E000FE7C624500D270BDA84214BF4FF08044F0
:1040F0004FF04044002E08BF0024BEF1806FA8BFDF
:10410000A1F1C041BDE8704080F282804FF0000014
:1041100001F1C04101F0004170479EEA0C0F0CEA2A
:10412000131518BF95EA0C0F06D04FF0000081EA76
:10413000030E0EF0004170BD00F01CF88900013E36
:1041400000F007B800F009B84FEA430C5FEA5C5C86
:1041500008D081EA030100F05BB84FEA410C5FEA46
:104160005C5CF6D14FF00000014970470000FF078A
:104170000000F87F0EF1020E2EF0030E5EF8046BC5
:10418000364205D4012A43EB030515F5001F12D86A
:10419000012841EB010C1CF5001F0CD80ED14FEA91
:1041A000D17C15F5001F0CEB4C0C0CF1020C08BF78
:1041B0004CEBD37C04E04FF0080C01E04FEAD37CD9
:1041C0000CEB4C0526FA05F606F00706B6F1040CD2
:1041D00006D20EEB860CBDE870404CF0010C604737
:1041E000DFE80CF0090B02024FF000414FF0000035
:1041F000A1F5002170BD19461046012851EB0104BC
:1042000018BFD4F5001484BF002001F0004170BD38
:104210000808A0F500114FEA3101704710B591EA86
:10422000030F48BF83F000433FF514AE841A71EBCF
:10423000030C07D212198CF0004C43EB0C03001B4B
:1042400061EB0C01DFF8A4E14FEA1154A4EB135C1D
:104250001EEA430F18BF9EEA445F00F0B08023EAD5
:104260006E03524221EA0451C3EB6E0338BF5B1E5A
:10427000DCF1200E25D322FA0CFE10EB0E0043FADF
:104280000CFE41EB0E01CCF1200E03FA0EFE10EBFA
:104290000E0051F10001CCF1200E29D412FA0EF2D9
:1042A00001EB0451BDE8104058BF7047401C1CBFD3
:1042B000B2F1004F704700280CBF491C20F00100EC
:1042C000704712EB020E43EB030218BF4FF0010ED2
:1042D0004EEA4202ACF1200CDCF11E0E54D943FA36
:1042E0000CFE10EB0E0051F1FF31CCF11E0ED5D5B6
:1042F0000EF1010E12FA0EFE404141EB010101EBFD
:10430000445C5FEA5C5C10D910EBDE7001EB045199
:1043100038BFBEF1004FBDE8104018BF70470028FD
:104320000CBF491C20F00100704730D24FEAD42C5A
:1043300011F5001124F400641BD0B1FA81F20B3A9C
:10434000A41AA41ED2F12003914030FA03F31943BA
:10435000904001EBCC71002C01EB0451BDE8104002
:10436000A8BF704701F1C0414FF0000001F00041CB
:104370007047B0FA80F310FA03F100D110BDE41ACF
:10438000173C4805C90AE4E701EB045110BD491088
:1043900001EB0451BDE810404FEA300002E04FF05D
:1043A000000170474A0008BF0042F8D0B2F5001F74
:1043B00028BF704701F000414FF0000070479EEAAF
:1043C000445F07D011EA5E0FBDE8104004BF002132
:1043D00000207047BDE8104070B5FFF7CBFE00BF6E
:1043E00040DFF63E83F00041104670470000E0FFDA
:1043F00043004FEAD30C4FEA3C0C43401FBF400739
:104400000CF1605113F0FE4F70471CF0006F03D1A8
:1044100000200CF0004170470CF0004343EA50705C
:1044200010B540EACC0000F00EF800BF000000928A
:104430004FEA0001FFF7ECBE4FF000414FF00000E3
:10444000A1F5002170470EF1020E2EF0030E5EF86A
:10445000044B244204D44FEA4102B2F17F4F11D8F9
:104460004FEA4003B3F17F4F0CD80ED14FEAD07C16
:10447000B2F17F4F0CEB4C0C0CF1020C08BF4CEB73
:10448000D17C04E04FF0080C01E04FEAD17C0CEB4A
:104490004C0324FA03F404F00704B4F1040C06D22C
:1044A0000EEB840CBDE810404CF0010C6047DFE8D7
:1044B0000CF0070802024FF00040A0F5800010BD8C
:1044C0000846420018BFD2F1807288BF00F0004059
:1044D00010BD4FF04070E1EE100A7047FF2141EA35
:1044E000D050C005704700005FEA400C5FEA1C6CCA
:1044F000BCF17F0314D4D3F1170240F31C804FF0BA
:10450000010C0CFA02FCACF101030340B3EB5C02BA
:1045100020EA030008BF10EA0C0F88BF6044704710
:10452000B3F1FF3F28BF5FEA002C00F0004088BFD6
:1045300040F07E507047BCF1FF0FB8BF704710B518
:10454000FFF781FF40DBB6BE081C3044586C80008A
:10455000000080000001800100028002BF0004030F
:1045600005050505061B18F6FA0DFD0DFD024D05A6
:10457000320F4B200600C05802210AA24D48465E69
:10458000486416220D85C47C428C4C4492880800F5
:104590002321AA41A85288544858485848CC814CF5
:1045A0004858485848CC814C485848584894481076
:1045B00000241DC7C9A7CE41884888484C48D098D8
:1045C000544450484C884888484444550C0025249D
:1045D000AB41B8C6144950444C9298909814422369
:1045E0009111531122311231496242625204C54C79
:1045F0004D002621AC41C80E9D885850585098480F
:104600005C845C8848518AA89888B090083119A1C8
:10461000A10A02270BA3444CC28144480400280F7E
:1046200003C6564A44484448FE4D484C00290E03F0
:10463000C65642484C92FC8B2421002A0FA7448C7A
:104640004E8C44480A99889814002B0D6945A8524D
:10465000608E0E840273042C0AA2C44602458404B0
:10466000002D0724C46A02012E0722444882002F2D
:104670001709C296625C605C605C605C605C605C58
:10468000605C605C20003014A945A84A4D54485431
:10469000449CBE8B880A898A2901310AA54DA8C28B
:1046A00050FE27053210A749A80649504454582AFD
:1046B000215D253B3314A749A84249D05458AA90FC
:1046C00032B130A9998812003418A941A85A9C58CF
:1046D0004494445448504CA210A19003B1C06405C6
:1046E0003511A649A8C2552A2AB1A854423211242C
:1046F000003618A845A84E498C44945C0A12A1883B
:104700003065115111323124003714A849A8C24133
:104710009858985832B130B1B8B0B830003818A8AD
:1047200045A80A89D098D85484498848544498B2F6
:1047300088A01812003919A845A80A4D8C44544481
:1047400098B28820118AB838A90899901A003A08B6
:10475000214948425C003B0881C9464258013C0F50
:104760006A41A8669C989C98529593A2013D0B8A39
:10477000C0A9C2C13CD4C1003E106A41A842A8E40D
:10478000A4A83275627291003F12A645884245CCBA
:104790005054505450AAF42031004026AD45F856EC
:1047A00099948C5C88084D44484C8C48508C484CFB
:1047B000904888CC48C48844C8044DB050201900A3
:1047C000411CAD41D85AACDA88C890C898B8A0B896
:1047D000A0B083A8B0A8B898C090A902421FA94170
:1047E000A8C2414C90485448544854488C8C4D8C35
:1047F0004C544854485448D0C104004314AA45C8F6
:10480000CE8990445C4460644E2343A5622C0044EE
:1048100021AC41D8C2815494505C4C6048604860DF
:104820004860486048604860485C4C58C8810C004B
:104830004514AA41A8C2C148584864464146592671
:104840000B093B204614A94198C281485448604650
:1048500031364131819915014718AC45C88E959084
:104860004C5C4C686C668631713171415251270045
:104870004820AD41D8424D495C505C505C505C5082
:104880005CD081505C505C505C505C505C484D0189
:10489000490BA54168424950FE93024A0F07C27670
:1048A0004A5158FE2731216968004B1EAC41C8426D
:1048B000094D9450B298B890C088C8C908C110B9C1
:1048C00018B120A9281112034C0EA9419842596031
:1048D000FE5548D4C1004D2AAF41F8021D899C50B5
:1048E0004498504454445044544450484C485048D0
:1048F0004C48504C48A2988898A02099A07C5255CA
:104900004E25AD41D8C2548958905850445450480F
:10491000501299A098444982822482A22282C284A1
:10492000E242AA42004F15AB45D84E559AB808B995
:10493000495DCE49C4C54445D5005017A941A8C218
:10494000519AA890A890A89020911899A2C0CC8ABA
:1049500000511F0DC6D64E5D54BA18B998C890C8FC
:1049600090C890C890C8103999B8A828315BE10563
:10497000521CAB41B8C2599050545054505450AA94
:10498000B298B098B0A0A8A0A82444035312A74599
:10499000984A459094983AB9645242112500540DB2
:1049A000AB41B8C2015568FEC31A00551FAD41C8DE
:1049B000424D495C505C505C505C505C505C505CBB
:1049C000505C505C505C54BA2200561DAC41C80289
:1049D000D5845C4C5C4C58544662317131711291F3
:1049E000119111A1B151005728B041080351D08451
:1049F00090544C90544C9050A299A89034512199C5
:104A00008564161114112724282418161816045822
:104A10001CAB41B842CD885450AA98B808B941C9D6
:104A200088B8102999A834611233055917AB41C8C9
:104A300042CD88548C50545058485C44A464680E4D
:104A40006B005A16A845B8C281544490589858BA79
:104A5000B0B8B0A888A803015B0A03CA560249FE91
:104A60009F0C5C1609C29642646064606460646076
:104A700064606460646064005D0A03C656C248FEF8
:104A80009F105E156A41A956A0BA90B0902811A156
:104A9000DC8485844504065F0727C487C20160075C
:104AA000244CAE0201611428459846499044545C58
:104AB0004C855044548450C801621AAA41A8C2646B
:104AC0002E888462C242C242C242C242C242846250
:104AD000224800630D2745984A45D09058766205D4
:104AE000641AAA45B8D66446143141226121612175
:104AF000612161216131414214036511274598CA42
:104B00004C8A28A903B1B8A0100A006611A7417801
:104B10000E494C484C48904D583E2A01671B8AC1AB
:104B2000A6CA41848C4C544C544C54504C5055E4BF
:104B30004144E098C409006818AB41B8C2682EA887
:104B400084520545054505450545054585541469C7
:104B50000BA541584A3CC8507E526A0E05C26652A7
:104B60003CC8507E242353016B18AA41A8C2646E2E
:104B700066628442A422E2E622C442A46244680639
:104B80006C0AA54158C250FE27056D1A314108C371
:104B90000409959050AA445189A21245258A4A14C5
:104BA00095A4A2016E172B41B8C2049550AAA0A8E3
:104BB000A0A8A0A8A0A8A0A8908A026F112945A823
:104BC0004A8D0AA93975531232322500701C8AC1E8
:104BD000B6C20491504C58485848584858485888CC
:104BE000504C0451645C1500711A8AC5A60A454CE4
:104BF00090485848584858485848584C9010456470
:104C0000BA02720E264578C28488444856B9A90073
:104C1000730E2645988691D098D890900500740C14
:104C200085457846509A8AA07C3575182B41B8C2C4
:104C3000CC505450545054505450545054509014DC
:104C4000C500761629419802C984504C504CAA9050
:104C5000A808A98838B92000771E2E41E8024DCC5B
:104C6000848C504C8C504C8A109990AC224224A2D7
:104C700084C484C4D20078172A419802CD84908CD1
:104C80008894449C5C84548C4C94C40C017919899C
:104C9000C19602C984504C504C8C50485448D49C06
:104CA0005C605CD814007A0E2845A8C281905866D2
:104CB00062A90E047B0E04C6668A444C3E098AC96A
:104CC00023017C0801CA46C203017D0F04C6668227
:104CD000504C3E0A89C90B11007E0E8AC0A9C694A9
:104CE0008890508CD40400A00600C05802A10B820A
:104CF000CD4646504492883CA21CA745A84E18C5F4
:104D00004844129198909890989098909890A08884
:104D1000A89A1800A312A749A80E494C484C485815
:104D2000A2A2B0ACA20EA41969C5A842DCC484C476
:104D300092A890A890A890A81019992C26D205A501
:104D400017AB41A842098990508C5884A0D85D685F
:104D5000DC5D68C21A00A60801CA46C2C901A718CC
:104D600007CAA6CACD9458DC4CC844D054844CCC55
:104D700098AA99830800A808254CAE828400A9232C
:104D8000AC45F81299908C984808494488488C485A
:104D90009C489C489C885844084988988C901811D5
:104DA00000AA10E7407B4249505848854C4450883F
:104DB00001AB10E7C4984E484E24D484C8840485BF
:104DC00004AC09AA40A9C2C1640EAD0724C46A029A
:104DD00001AE1207C9AACA4C8A0A8914122994443E
:104DE000A81901AF07254CAE4201B00A83C44C4656
:104DF0000A891400B10F6945A8526046074281E94B
:104E0000E10E04B20C04996AC244484C926C08B397
:104E10000E04996AC244484C848C120A00B40724D8
:104E20004CAE0201B51B8BC1B6C2CC50545054508D
:104E300054505450545054509050C548684200B695
:104E40002007C6A6C6018517111431124111411160
:104E5000411141114111411141114111411101B75C
:104E60000722D0AA8200B80863D0A6824801B909F7
:104E700003996A8248BE18BA0EE6447B0685C8903C
:104E8000A211090A00BB10E7C498424850488C4858
:104E90008C8492BC01BC21AB51D8829848584C54A8
:104EA000509050AA9824212A2642228242D28894E5
:104EB0008485C445C40DBD20AA51D8829844584861
:104EC000544C904C501A9290118AA098A810A19816
:104ED000A098A0982802BE23AC55D8C29844485444
:104EE000A220553271213111211122122329A2420F
:104EF0001289D484C5C485C40DBF11A645864E3C15
:104F00004854A254415141331105C01EED41D812FD
:104F10003D64ACDA88C890C898B8A0B8A0B083A89F
:104F2000B0A8B898C090A902C11EED41D8163D6046
:104F3000ACDA88C890C898B8A0B8A0B083A8B0A8C8
:104F4000B898C090A902C21EED41D88E3D60ACDA7F
:104F500088C890C898B8A0B8A0B083A8B0A8B898DE
:104F6000C090A902C31EED41D8923D5CACDA88C85E
:104F700090C898B8A0B8A0B083A8B0A8B898C090BE
:104F8000A902C41FED41D892843C60ACDA88C89075
:104F9000C898B8A0B8A0B083A8B0A8B898C090A985
:104FA00002C51F0D42D8D6E83C64ACDA88C890C868
:104FB00098B8A0B8A0B083A8B0A8B898C090A9022B
:104FC000C61EAF4108E39D54D870446C48A84850B1
:104FD000548C514AC3A838A9B8B0289A0301C717FE
:104FE0000AC6C6CE8990445C4460644E2343A562E1
:104FF000CC22E56600C815EA41A80EF5C14858481C
:105000006446414659260B093B20C915EA41A80EC2
:10501000F5C14858486446414659260B093B20CA09
:1050200015EA41A88AF1C1485848644641465926C4
:105030000B093B20CB16EA41A88E84F0C1485848A2
:105040006446414659260B093B20CC0CE5416802D9
:10505000594950FE9302CD0CE5416806554950FE72
:105060009302CE0CE64568825D4D54FE9B02CF0D47
:10507000E541688284544950FE9302D020AC41D867
:10508000C2815494505C4C60486048E05548604888
:10509000604860485C4C58C8810C00D127ED41D86D
:1050A000923DC454895890585044545048501299D5
:1050B000A098444982822482A22282C284E242AA27
:1050C0004200D217EB45D80E3D4C559AB808B94965
:1050D0005DCE49C4C54445D500D317EB45D8123D34
:1050E00048559AB808B9495DCE49C4C54445D5006C
:1050F000D417EB45D88A3D48559AB808B9495DCED2
:1051000049C4C54445D500D517EB45D88E3D445517
:105110009AB808B9495DCE49C4C54445D500D618EA
:10512000EB45D88E843C48559AB808B9495DCE49BC
:10513000C4C54445D500D7196A41A8426044584CBB
:10514000509088149D1C594854504C58446000D8C5
:105150001CAB45D84E49AA893832B210A918A120F3
:105160009928913076114322213500D920ED41C88C
:10517000123D4C93B8A0B8A0B8A0B8A0B8A0B8A0F1
:10518000B8A0B8A0B8A0B8A8744500DA21ED41C80D
:10519000163D484D495C505C505C505C505C505C26
:1051A000505C505C505C505C54BA2200DB21ED41F5
:1051B000C8923D444D495C505C505C505C505C5022
:1051C0005C505C505C505C505C54BA2200DC22EDB8
:1051D00041C892843C484D495C505C505C505C50E6
:1051E0005C505C505C505C505C505C54BA2200DDFA
:1051F00018EB41C81279CD88548C50545058485CF3
:1052000044A464680E6B00DE19AA41A8425D64A440
:10521000519448584858485848904C55645C15007B
:10522000DF20AB41A84E958C50545090504C584CB8
:10523000588C549050944C5C485C484C8C0505004C
:10524000E0156845980A6D499044545C4C8550447B
:10525000548450C801E1156845980A6D499044543A
:105260005C4C855044548450C801E21568459886CA
:1052700069499044545C4C855044548450C801E3BF
:10528000156845988669499044545C4C855044544F
:105290008450C801E41568459886DA922089A8B838
:1052A000980AA188A808A19003E516884598CAD451
:1052B00070499044545C4C855044548450C801E675
:1052C000192C45E806C948CC4C4450542607356192
:1052D0004161414211241400E71187C5964A45D027
:1052E000905876623561422300E81267459806EDD2
:1052F0004C8A28A903B1B8A0100A00E912674598A2
:105300000AE94C8A28A903B1B8A0100A00EA12677A
:10531000459886E54C8A28A903B1B8A0100A00EB8D
:105320001267459886D2991451520762714121142F
:1053300000EC0A65415802D9507E52ED0A65415889
:1053400006D5507E52EE0A66455882DD547E53EFF4
:105350000B6541588284D4507E52F016A945A8C2EC
:10536000D5544D908C894CD59CBA290919991200B5
:10537000F1186B41B88AF9049550AAA0A8A0A8A07A
:10538000A8A0A8A0A8908A02F2126945A80A798D5F
:105390000AA93975531232322500F3126945A80E55
:1053A000758D0AA93975531232322500F4126945F8
:1053B000A886758D0AA93975531232322500F51267
:1053C0006945A886758D0AA93975531232322500B0
:1053D000F6136945A88A84748D0AA9397553123267
:1053E000322500F70D2945A8523C8A037914410063
:1053F000F8142945A84A458410230999180921461B
:1054000012112500F91A6B41B80E3DC0CC50545012
:10541000545054505450545054509014C500FA19DC
:105420006B41B812F9CC505450545054505450540D
:105430005054509014C500FB196B41B88EF5CC50F8
:105440005450545054505450545054509014C5001B
:10545000FC1A6B41B88E84F8CC50545054505450C0
:105460005450545054509014C500FD1AC9C1960EA2
:105470002DC984504C504C8C50485448D49C5C608E
:105480005CD81400FE1D0AC2B6C2642E888462C2B3
:1054900042C242C242C242C2428462228822E3AA7B
:1054A00000FF1BC9C1968A842CC984504C504C8C77
:1054B00050485448D49C5C605CD81400000000083C
:1054C0000164092BFFFF01001FED41D8523D60AC84
:1054D000DA88C890C898B8A0B8A0B083A8B0A8B817
:1054E00098C090A902010116684598466D499044FC
:1054F000545C4C855044548450C80101021FED4156
:10550000D88E3D60ACDA88C890C898B8A0B8A0B072
:1055100083A8B0A8B898C090A9020103166845985E
:105520008669499044545C4C855044548450C80169
:105530000104200DC2D65AACDA88C890C898B8A029
:10554000B8A0B083A8B0A8B898C090A97A145300A6
:1055500001051888C59646499044545C4C855044D2
:10556000548450C83DCC0C00010617EA45C8123DD2
:10557000C08990445C4460644E2343A5622C0001C2
:10558000070F6745980A6945D0905876620501086B
:1055900016EA45C88EF98990445C4460644E234302
:1055A000A5622C0001090F674598866545D0905883
:1055B000766205010A17EA45C8963CC48990445CA6
:1055C0004460644E2343A5622C00010B0F6745988D
:1055D0008E6C45D09058766205010C16EA45C88E4F
:1055E000F98990445C4460644E2343A5622C000119
:1055F0000D0F674598866545D09058766205010E77
:1056000024EC41D88E3DC0815494505C4C6048607D
:1056100048604860486048604860485C4C58C881B1
:105620000C00010F22AC45E8D6885C885C4C5C4CD1
:1056300008454822A1B0A0B0A0B0A0B0A0B0A8205A
:10564000318A1100011021AC41D8C2815494505CC0
:105650004C60486048E055486048604860485C4C91
:1056600058C8810C0001111DAA45B8D6645C5D10B4
:10567000454C90485848584858485848584C9010FD
:10568000C500011216EA41A84AF5C14858486446C7
:10569000414659260B093B2001131367459846E9FB
:1056A0004C8A28A903B1B8A0100A00011416EA41D7
:1056B000A88AF1C14858486446414659260B093B1F
:1056C0002001151367459886E54C8A28A903B1B8CF
:1056D000A0100A00011616EA41A892F8C1485848DD
:1056E0006446414659260B093B200117136745982C
:1056F0008EEC4C8A28A903B1B8A0100A0001181832
:105700000AC2A6C2C14858486446414659260B09F8
:105710003BA0879C0101191487C596CA4C8A28A909
:1057200003B1B8A0107A901100011A16EA41A88AB4
:10573000F1C14858486446414659260B093B2001AF
:105740001B1367459886E54C8A28A903B1B8A010B9
:105750000A00011C1BEC45C88E3D8C95904C5C4C9E
:10576000686C6686317131714152512700011D1DEF
:10577000CAC1A68AF941848C4C544C544C54504CA8
:105780005055E44144E098C40900011E1BEC45C893
:105790008E3D8C95904C5C4C686C66863171317195
:1057A0004152512700011F1DCAC1A68AF941848CAC
:1057B0004C544C544C54504C5055E44144E098C423
:1057C000090001201BEC45C8963C9495904C5C4C1C
:1057D000686C668631713171415251270001211E7A
:1057E000CAC1A6923CC441848C4C544C544C545075
:1057F0004C5055E44144E098C4090001221E6C4617
:10580000C58E95904C5C4C686C66863171317141E7
:105810005251F740A2B249C3000123224AC2A65600
:105820006064A4A03CC441848C4C544C544C5450EF
:105830004C5055E44144E098C40900012423ED4153
:10584000D8923D444D495C505C505C505C505CD0FB
:1058500081505C505C505C505C505C484D010125AF
:105860001BEB41B8823DC4682EA88452054505450E
:10587000054505450545855414012621AD41D8420D
:105880004D495C505CC881495C505CD081505C5093
:105890005C505C505C505C484D0101271CAB41B82A
:1058A000C268645D68049550AAA0A8A0A8A0A8A09A
:1058B000A8A0A8908A0201280EE6416882594D549A
:1058C000FE9B0A0001290B663D5882DD547E530180
:1058D0002A0DE5416842554950FE9302012B0B65A4
:1058E000415842D5507E52012C0EE6416882594DF6
:1058F00054FE9B0A00012D0B663D5882DD547E53F9
:10590000012E0E05C266424950FE93DA0900012FAE
:105910000E05C2564A3CC8507E523B0101300DE58F
:1059200041688A584950FE930201310A254158C204
:10593000507E520132270DC2D6424D495C505C5018
:105940005C505C505C505C505C505C505C505C50F7
:105950005C4855604C6048240D000133210AC2B6F2
:105960004A583C82A191B090B090B090B090B09065
:10597000B09030A3A898A898280A0001341147C213
:105980007686655158FE273121696800013511C7B7
:10599000C16686E558FE24262426840600013625A5
:1059A0006C42C542094D9450B298B890C088C8C99D
:1059B00008C110B918B120A92811127B1051D9A41F
:1059C000610001371E6A42A5C2646E66628442A409
:1059D00022E2E622C442A4624468C60525134601B9
:1059E0000138182A41A84ACC4C8C50885444DC5CBD
:1059F000845888548C08CD00013910E94198067507
:105A00005960FE5548D4C100013A0CE5415802D90D
:105A100050FE2705013B14694295425960FE5548E6
:105A2000D4C1B49C60BA2000013C10654255C250FC
:105A3000FE27753242694200013D17AC41D84295BC
:105A4000489C48604860485C4C6C5E65732003016C
:105A50003E14A84198C28C488C48504850484CBAD3
:105A60007C5503013F13AF41384371783E15094F10
:105A700015181576200601400FAB41F8C2687E2646
:105A8000129A611900014113A941984259601661A7
:105A90006361835985441D0C01420EA54158C250D3
:105AA0008E2644867252014328ED41D8123DCC54D3
:105AB000895890585044545048501299A0984449DD
:105AC00082822482A22282C284E242AA420001444B
:105AD0001A6B41B80E3DC0049550AAA0A8A0A8A07A
